:100000004896FF1F0D140000C4140000C414000023
:10001000C4140000C4140000C41400000000000058
:10002000000000000000000000000000C4140000F8
:10003000C414000000000000C4140000C414000038
:10004000C4140000C4140000C4140000C414000050
:10005000C4140000C4140000C4140000C414000040
:10006000C4140000C4140000C4140000C414000030
:10007000C4140000C4140000C4140000C414000020
:10008000C4140000C4140000C4140000C414000010
:10009000C4140000C4140000C4140000C414000000
:1000A000C4140000C4140000C4140000C4140000F0
:1000B000C4140000C4140000C4140000C4140000E0
:1000C000C4140000C4140000C4140000C4140000D0
:1000D000C4140000C414000045120000C414000041
:1000E000C4140000C4140000C4140000C4140000B0
:1000F000C4140000C4140000C4140000C4140000A0
:10010000C4140000C4140000C4140000C41400008F
:10011000C4140000C4140000C4140000C41400007F
:10012000C4140000C4140000C4140000C41400006F
:10013000C4140000C4140000C4140000C41400005F
:10014000C4140000C4140000C4140000C41400004F
:10015000C4140000C4140000C4140000C41400003F
:10016000C4140000C4140000C4140000C41400002F
:10017000C4140000C4140000C4140000C41400001F
:10018000110C0000CD0C0000490D0000950C000082
:10019000C9080000C4140000C4140000C414000006
:1001A000C4140000C4140000C4140000C4140000EF
:1001B000C4140000C4140000C4140000C4140000DF
:1001C000C4140000C4140000C4140000C4140000CF
:1001D000C4140000C4140000C4140000C4140000BF
:10040000FFFFFFFFFFFEFFFFFFFFFFFFFFFFFFFFFD
:10041000FFFFFFFFFFFFFFFFFFFFFFFFFFFFFFFFEC
:1004200080B400AF034B5E225A8100BFBD465DF829
:10043000047B70470038054080B500AF124BDB6885
:10044000114A23F00103D360104B00221A700A20D6
:1004500000F074FF0D4B4FF498625A800B4B002252
:100460009A800A4B00225A81084B0122DA60074B1E
:1004700001225A61054BFF2283F82020034B002202
:10048000A3F8C02000BF80BD0080044000000440ED
:1004900080B400AF134B9B68124A23F02003936093
:1004A000114B522283F880200F4B002283F88120C9
:1004B0000D4B00221A800C4B7D229A800A4B0022A1
:1004C000A3F84C20084B41F24302A3F84C21074B00
:1004D00003F580531A460123136000BFBD465DF843
:1004E000047B704700800440005C014000802B4288
:1004F00080B400AF344B4AF20152A3F8FC23324BD4
:10050000B3F8F8339BB2304A23F4E0439BB2A2F82D
:10051000F8332D4BB3F8F8339BB22B4A6FEA834381
:100520006FEA93439BB2A2F8F833274B0322A3F858
:10053000F423254B0422A3F86624234B5022A3F86E
:100540006424214B0422A3F862241F4B4022A3F809
:1005500060241D4B5222A3F804241B4B5222A3F803
:100560000824194B5222A3F80C24174B5222A3F84B
:100570001024154B5322A3F8B424134B0422A3F8E0
:10058000B624114B5222A3F818240F4B4022A3F893
:1005900058240D4B4022A3F800240B4B0022A3F853
:1005A0000224094B3022A3F82624074B3122A3F85A
:1005B0002224054B4FF42542A3F8FC2300BFBD467F
:1005C0005DF8047B704700BF0038054080B483B0FD
:1005D00000AF0346FB80B7F90630002B0BDBFB882E
:1005E00003F01F020749B7F906305B09012000FA42
:1005F00002F241F8232000BF0C37BD465DF8047BB2
:10060000704700BF00E100E080B483B000AF034654
:100610003960FB80B7F90630002B0ADB3B68DAB2A1
:100620000C49B7F906301201D2B20B4483F800230B
:100630000AE03B68DAB20849FB8803F00F03043B89
:100640001201D2B20B441A7600BF0C37BD465DF8DA
:10065000047B704700E100E000ED00E02DE9B043CD
:1006600086B000AF786000F091FEC7E904017B68B6
:1006700032330D4AA2FB03235B09FB6000F086FEC8
:10068000D7E90423841A61EB0305FB68002298462E
:100690009146444575EB090300D2EFE700BF00BF68
:1006A0001837BD46BDE8B0831F85EB5180B400AF5D
:1006B000134B9B68124A23F020039360114B422294
:1006C00083F880200F4B002283F881200D4B0022FD
:1006D0001A800C4BA4229A800A4B0022A3F84C20CB
:1006E000084B41F24332A3F84C21074B03F58053EA
:1006F0001A460123136000BFBD465DF8047B7047B6
:1007000000800440005C014000802B4280B500AFB7
:100710002A4B9B68294A23F020039360284B4222EE
:1007200083F88020264B002283F88120244B00226E
:100730001A80234B4FF6FF729A80214B44F231020C
:10074000A3F808211E4B0022A3F848201C4BB3F845
:1007500090309BB21A4A43F004039BB2A2F8903047
:10076000184B40F20B12C3F8AC2101215420FFF7C3
:100770004BFF5420FFF72AFF134B03F580531A4613
:1007800001231360114B00221A70114B00221A60D2
:10079000104B00221A70104B00221A700F494FF0B4
:1007A00000024FF00003C1E900230D4B00221A7034
:1007B0000C4B00221A7000BF80BD00BF00800440B7
:1007C000005C01400010054000802B420880FF1FA4
:1007D0000C80FF1F1080FF1F1180FF1F1880FF1F5C
:1007E0000080FF1F2080FF1F80B584B000AF03464C
:1007F0000A46FB711346BB71FA79FB79DB43DBB226
:100800001B021A43BB791B041A43BB79DB43DBB2DF
:100810001B061343BB602B4B5222A3F84C20294BE1
:1008200041F24302A3F84C2142F22830FFF716FFB1
:10083000244B41F24322A3F84C214FF47A60FFF796
:100840000DFF0023FB7324E01E4B5222A3F84C2023
:100850001C4B41F24302A3F84C214FF40C70FFF7FC
:10086000FDFE184B41F24322A3F84C21FB7B0122F1
:100870009A40BB681340002B04D040F29A60FFF707
:10088000EDFE03E04FF40C70FFF7E8FEFB7B013355
:10089000FB73FB7B1F2BD7D90A4B5222A3F84C20AA
:1008A000084B41F24302A3F84C214FF40C70FFF7C0
:1008B000D5FE044B41F24322A3F84C2100BF103770
:1008C000BD4680BD005C014080B584B000AF5E4B8A
:1008D000B3F89C309BB203F00403002B00F0B0800F
:1008E000594BB3F89C309BB2574A23F004039BB298
:1008F000A2F89C3000F04AFDC7E90001534BD3E950
:100900000023134307D03968504BD3E90023134623
:10091000CB1AFB6001E00023FB604C49D7E90023C0
:10092000C1E90023FB68C82B08D9494B00221A7083
:10093000484B00221A70484B00221A60474B1B7824
:10094000DBB2002B0CBF01230023DBB21A46434B62
:100950001A70424B1B78DBB2002B25D13C4B1B7825
:10096000DBB2002B02D0022B10D069E0FB683B2BDE
:1009700065D9FB68782B62D8354B01221A70354B4C
:1009800000221A70344B00221A6058E0FB68022BD8
:1009900006D9FB680A2B03D82D4B03221A704FE0AF
:1009A0002B4B00221A704BE0294B1B78DBB2012B3A
:1009B00002D0032B0ED043E0FB68182B06D9FB684E
:1009C0003C2B03D8224B02221A7039E0204B002224
:1009D0001A7035E0FB68022B08D9FB680A2B05D892
:1009E0001D4B1B685B081C4A136011E0FB680B2B56
:1009F0000AD9FB68192B07D8174B1B685B0843F013
:100A00000043154A136003E0114B00221A7017E0EF
:100A1000104B1B78DBB20133DAB20E4B1A700D4B60
:100A20001B78DBB21F2B06D90D4B01221A70084B25
:100A300000221A7004E0064B02221A7000E000BF88
:100A400000BF1037BD4680BD005C01401880FF1F0D
:100A50000880FF1F1080FF1F0C80FF1F0080FF1FFA
:100A60001180FF1F80B400AF00BFBD465DF8047B5E
:100A70007047000080B58AB000AF00F00FFAFFF7B2
:100A800037FD00F09DFCFFF7CBFCFFF7D5FCFFF72F
:100A90000DFEFFF73BFEFFF7FBFC01233B8000232D
:100AA000BB706423BB611A4B3B623B46184600F0A7
:100AB0001DFA03220121012000F046FAFF21AA209D
:100AC000FFF792FE40F6B83000F038FCAA21AA20C9
:100AD000FFF78AFE40F6B83000F030FC1121AA2062
:100AE000FFF782FE40F6B83000F028FC1221AA2061
:100AF000FFF77AFE40F6B83000F020FC1321AA2060
:100B0000FFF772FE40F6B83000F018FC00BFD5E7E2
:100B1000650A000080B487B000AFF860B9607A6001
:100B2000FB687B61BB683B6107E03A69531C3B6132
:100B30007B69591C796112781A707B685A1E7A6039
:100B4000002BF2D100BF00BF1C37BD465DF8047B0F
:100B5000704780B483B000AF78607B68D3F8D03042
:100B6000032B0CBF01230023DBB218460C37BD4614
:100B70005DF8047B7047000080B582B000AF7860FC
:100B800039607868FFF7E5FF0346002B01D00323A7
:100B900026E07B68D3F8CC20796813465B011344C8
:100BA0005B00CA183B681046194642231A4600F0FB
:100BB0008BFC7B68D3F8CC30591C0B4BA3FB012377
:100BC0005A0813465B001344CA1A7B68C3F8CC204A
:100BD0007B68D3F8D0305A1C7B68C3F8D020002340
:100BE00018460837BD4680BDABAAAAAA80B400AF9C
:100BF000064B0122C3F86821044B0122C3F86C2183
:100C000000BFBD465DF8047B704700BF0000A742EF
:100C100080B483B000AF1C4BD3F89C31012B2CD196
:100C20001A4B9B68D3F80021184B9B68D3F804310A
:100C30009A4222D0154B9B68D3F800317B60134B4E
:100C40009A687B6813441B785AB2114B92B29A800F
:100C50007B685A1C0D4B9B68D2B2C3F800210B4B2A
:100C60009B68D3F80021094B9B68D3F804319A4262
:100C700003D1054B0122C3F8982100BF0C37BD46B4
:100C80005DF8047B704700BF00003A42F880FF1F08
:100C900000D0014080B500AF0A4B9B68D3F800211B
:100CA000084B9B68D3F804319A4209D1064B0022C5
:100CB000C3F89C21044B0022C3F89821FFF796FF4C
:100CC00000BF80BDF880FF1F00003A4280B483B0AF
:100CD00000AF1A4B5B68012B03D1184B0122C3F8FC
:100CE000C421164B5B69012B22D1154BDB889BB2CB
:100CF000FB71144BDB68D3F804320133C3F30803F0
:100D00003B60104BDB68D3F800323A689A420ED051
:100D10000C4BDA680B4BDB68D3F8043297F90710F9
:100D2000D154084BDB683A68C3F8042200E000BFE6
:100D30000C37BD465DF8047B704700BF00003A42A7
:100D400000D00140F880FF1F80B592B000AF294B62
:100D50001B6A012B49D10023A7F846301EE0264B21
:100D6000DA68254BDB68D3F80032D35C5AB2B7F8A7
:100D70004630D2B248333B4403F8442C1E4BDB6868
:100D8000D3F800325A1C1C4BDB68C2F30802C3F8CC
:100D90000022B7F846300133A7F84630164B9B6A5D
:100DA00015489847034683F00103DBB2002BD6D1E8
:100DB000B7F84630A7F84430B7F84630002B04D0D7
:100DC0003B1D19460D48FFF7D7FE0D4B0022C3F817
:100DD00020220B4B0022C3F80022094B0122C3F84A
:100DE0002022044B0122C3F8D02100BF4837BD4662
:100DF00080BD00BF00003A42F880FF1F2480FF1F23
:100E00000080484280B485B000AF0346FB800023D9
:100E1000FB8115E0FA890F4913469B001344DB0060
:100E20000B441B88FA889A4207D1FA8913469B0023
:100E30001344DB00074A134406E0FB890133FB81BE
:100E4000FB891F2BE6D9002318461437BD465DF8F1
:100E5000047B70473881FF1F80B483B000AF786097
:100E60007B6800221A6279684FF000024FF000039D
:100E7000C1E9022379684FF000024FF00003C1E995
:100E800004237B6800229A617B6800229A7000BF6D
:100E90000C37BD465DF8047B7047000080B582B01A
:100EA00000AF00237B6016E00F497A6813469B0071
:100EB0001344DB000B444FF6FF721A807A68134626
:100EC0009B001344DB00084A13441846FFF7C4FF95
:100ED0007B6801337B607B681F2BE5D900BF00BFB7
:100EE0000837BD4680BD00BF3881FF1F80B584B084
:100EF00000AF78600023FB601CE01249FA681346DB
:100F00009B001344DB000B441B884FF6FF72934297
:100F10000DD1FA6813469B001344DB00094A1344C1
:100F2000282279681846FFF7F5FD012306E0FB68E3
:100F30000133FB60FB681F2BDFD9002318461037F5
:100F4000BD4680BD3881FF1F80B584B000AF034629
:100F5000FB800B467B7113463B71FB881846FFF7FD
:100F600051FFF86000F012FA02460B46F968C1E939
:100F70000223FB68002B33D0FB689B785BB2002B0D
:100F800017DA7B79002B07D0FB68DA783B791343BB
:100F9000DAB2FB68DA7023E0FB68DB785AB297F9C3
:100FA0000430DB435BB213405BB2DAB2FB68DA7049
:100FB00016E07B79002B07D0FB689A783B791343C6
:100FC000DAB2FB689A700BE0FB689B785AB297F92B
:100FD0000430DB435BB213405BB2DAB2FB689A7059
:100FE00000BF1037BD4680BD80B485B000AF7860CB
:100FF0007B6803F00703FB600C4BDB68BB60BA68DF
:101000004FF6FF031340BB60FB681A02BB68134333
:1010100043F0BF6343F40033BB60044ABB68D36052
:1010200000BF1437BD465DF8047B704700ED00E05B
:1010300080B483B000AF0346FB80B7F90630002BC5
:101040000BDBFB8803F01F020749B7F906305B0989
:10105000012000FA02F241F8232000BF0C37BD4600
:101060005DF8047B704700BF00E100E080B483B00E
:1010700000AF03463960FB80B7F90630002B0ADB6E
:101080003B68DAB20C49B7F906301201D2B20B4410
:1010900083F800230AE03B68DAB20849FB8803F0D2
:1010A0000F03043B1201D2B20B441A7600BF0C3777
:1010B000BD465DF8047B704700E100E000ED00E014
:1010C00080B483B000AF78607B689B09054AA2FBBF
:1010D0000323DB0A044A136000BF0C37BD465DF8EA
:1010E000047B70478DA93C024086FF1F80B485B009
:1010F00000AF7860094B1A687B6802FB03F3FB6062
:1011000000BFFB685A1EFA60002BFAD100BF00BF77
:101110001437BD465DF8047B704700BF4086FF1F53
:1011200080B500AF3C4B03F540434AF20F52A3F8A1
:10113000FE23394B394A1A61374B394A1A60364B0C
:10114000384A1A61384B394A1A62374B012283F800
:101150003220354BA02283F81024334B002283F831
:101160003220334B77225A60314B4FF011321A60E4
:101170002F4B76225A602F4B40F223121A602D4BD0
:1011800043F210221A602C4B0022C3F82021294B75
:101190009B68284A23F0F0039360264B9B68254AFE
:1011A00043F050039360234B42F222221A601A4B01
:1011B00003F540430F2283F80224174B03F5404305
:1011C000102283F80F241D48FFF77AFF4FF47A703E
:1011D000FFF78CFF144B012283F82A20124B184A88
:1011E000C3F80021104B002283F82A2000BF0E4BC9
:1011F00093F83C30DBB203F02803002BF7D00A4B06
:10120000052283F82620044B03F540434FF4254282
:10121000A3F8FE2300BF80BD008004400100A5A507
:10122000EEFAFDFE0000A5A50040054011221100C8
:1012300000080540000401400080204200127A00AE
:101240000031101180B400AF0A49D1F88010012993
:101250000BD10949D1E900014B1C02460649C1E9FD
:101260000023044B0122C3F8802200BFBD465DF875
:10127000047B70470000A4423886FF1F80B500AF92
:101280001A4B9B68194A23F001039360184B4022C4
:101290001A64184B00221A60164B42F210729A60C0
:1012A000144B4FF480421A61134B3722C3F8F420D9
:1012B00000212620FFF7DAFE2620FFF7B9FE0C4BAF
:1012C00040225A600D4B0E4A9A600C4B0122DA60A4
:1012D0000A4B0C4A1A60094B01229A61054B1B69A3
:1012E000044A43F00103136100BF80BD0080044045
:1012F0000008014000400240001005400020054069
:101300000000FFFF1300008080B500AF0A4BD3F848
:101310008830094A43F47003C2F88830FFF700FFB1
:10132000054B00229A604FF44070FFF75DFEFFF717
:10133000A5FF00BF80BD00BF00ED00E02DE9B04378
:1013400086B000AF786000F021F8C7E904017A6840
:1013500013469B0013445B001A46002390469946AF
:10136000C7E9028900F012F8D7E90423841A61EB77
:101370000305D7E90223944275EB030300D2F1E79A
:1013800000BF00BF1837BD46BDE8B083B0B400AFA2
:101390000949896800200A4603460849D1E9000145
:1013A00042EA000443EA010522462B46104619464C
:1013B000BD46B0BC704700BF002005403886FF1F07
:1013C00080B400AF0E4B5B680D4A23F4803353604A
:1013D0000C4B1022DA600B4B40F613729A610A4BE9
:1013E0000122C3F88C20084B0122C3F88420064B4D
:1013F0000122C3F8982000BFBD465DF8047B70470A
:101400000080044000C0014000003842DFF87CD07A
:101410001F49204A204B9A42BEBF51F8040B42F8A4
:10142000040BF8E71D491E4A1E4B9A42BEBF51F8F5
:10143000040B42F8040BF8E71B491C4A00209142B8
:10144000BCBF41F8040BFAE719491A4A002091423F
:10145000BCBF41F8040BFAE717484FF07701016071
:1014600016484FF07701016015484FF4885101602C
:1014700011484FF07601016010484FF0760101608D
:10148000FFF742FFFFF7F6FA704700004896FF1F8C
:10149000E41400000080FF1F0480FF1FE814000018
:1014A00000000F2000000F200880FF1F4486FF1F50
:1014B00000000F2000000F20040805400C08054024
:1014C00000080540FEE700BF0A44914200F1FF33E7
:1014D00000D1704710B511F8014B03F8014F91424C
:0414E000F9D110BD71
:0414E4000100000003
:040000030000140DD8
:00000001FF
