:100000005096FF1F35160000EC160000EC1600009D
:10001000EC160000EC160000EC16000000000000DA
:10002000000000000000000000000000EC160000CE
:10003000EC16000000000000EC160000EC160000BA
:10004000EC160000EC160000EC160000EC160000A8
:10005000EC160000EC160000EC160000EC16000098
:10006000EC160000EC160000EC160000EC16000088
:10007000EC160000EC160000EC160000EC16000078
:10008000EC160000EC160000EC160000EC16000068
:10009000EC160000EC160000EC160000EC16000058
:1000A000EC160000EC160000EC160000EC16000048
:1000B000EC160000EC160000EC160000EC16000038
:1000C000EC160000EC160000EC160000EC16000028
:1000D000EC160000EC160000B9140000EC1600004D
:1000E000EC160000EC160000EC160000EC16000008
:1000F000EC160000EC160000EC160000EC160000F8
:10010000EC160000EC160000EC160000EC160000E7
:10011000EC160000EC160000EC160000EC160000D7
:10012000EC160000EC160000EC160000EC160000C7
:10013000EC160000EC160000EC160000EC160000B7
:10014000EC160000EC160000EC160000EC160000A7
:10015000EC160000EC160000EC160000EC16000097
:10016000EC160000EC160000EC160000EC16000087
:10017000EC160000EC160000EC160000EC16000077
:10018000910D00004D0E0000C90E0000150E00007C
:10019000950A0000EC160000EC160000EC160000BA
:1001A000EC160000EC160000EC160000EC16000047
:1001B000EC160000EC160000EC160000EC16000037
:1001C000EC160000EC160000EC160000EC16000027
:1001D000EC160000EC160000EC160000EC16000017
:10040000FFFFFFFFFFFEFFFFFFFFFFFFFFFFFFFFFD
:10041000FFFFFFFFFFFFFFFFFFFFFFFFFFFFFFFFEC
:1004200080B500AF084B1E225A810A2001F0C0F8A7
:10043000054B14221A810A2001F0BAF8024B1E2241
:100440005A8100BF80BD00BF0038054080B400AFB6
:10045000134B9B68124A23F020039360114B5222E6
:1004600083F880200F4B002283F881200D4B00225F
:100470001A800C4B7D229A800A4B0022A3F84C2054
:10048000084B41F24302A3F84C21074B03F580537C
:100490001A460123136000BFBD465DF8047B704718
:1004A00000800440005C014000802B4280B400AF1B
:1004B000114B5B68104A23F0100353600F4B00226E
:1004C0001A600E4B0122DA630C4B01221A600C4BAE
:1004D0000C4A1A620A4B0C4ADA62094B03221A636D
:1004E000064B0022DA63054B01221A6000BFBD46AD
:1004F0005DF8047B704700BF0080044000009C4210
:1005000000E00440DF50F00005250E0080B483B009
:1005100000AF4FF480337B6007E07B68013B7B607A
:100520007B68002B01D1012306E0064BDB6903F455
:100530000033002BF1D1002318460C37BD465DF87F
:10054000047B704700E0044080B483B000AF4FF4F8
:1005500080337B600D4B01221A6207E07B68013B10
:100560007B607B68002B01D1012309E0084BDB692C
:1005700003F00103002BF1D0054B01221A62002386
:1005800018460C37BD465DF8047B704700009C425E
:1005900000E0044080B483B000AF4FF480337B6050
:1005A0000D4B01225A6207E07B68013B7B607B6850
:1005B000002B01D1012309E0084BDB6903F0100394
:1005C000002BF1D0054B10221A62002318460C377D
:1005D000BD465DF8047B704700009C4200E004408B
:1005E00080B485B000AF03460A46FB711346BB7169
:1005F0004FF48033FB60FB795B005AB297F9063009
:1006000013435AB2144BD2B283F8242007E0FB689C
:10061000013BFB60FB68002B01D1012316E00E4B70
:10062000DA6941F208031340002BF0D00A4BDB6972
:1006300003F48053002B05D0074B4FF480521A620D
:10064000012303E0044B08221A62002318461437E2
:10065000BD465DF8047B704700E0044080B485B07F
:1006600000AF0346FB714FF48033FB60144AFB7903
:1006700082F8243007E0FB68013BFB60FB68002B3D
:1006800001D1012316E00E4BDA6941F20803134051
:10069000002BF0D00A4BDB6903F48053002B05D00C
:1006A000074B4FF480521A62012303E0044B0822E7
:1006B0001A62002318461437BD465DF8047B704764
:1006C00000E0044080B584B000AF0346FB71002316
:1006D000FB73184B184A1A62FFF718FF0346002BEA
:1006E00001D0012322E0FFF72FFF0346002B02D0A9
:1006F0000123FB7314E000215020FFF771FF034634
:10070000002B02D00123FB730AE0FB791846FFF7A8
:10071000A5FF0346002B02D00123FB7300E000BFBE
:10072000FFF738FF642000F0E7F8FB7B184610372E
:10073000BD4680BD00E00440DF50F00080B500AF52
:100740000120FFF7BFFF41F2883000F031FF0220A7
:10075000FFF7B8FF41F2883000F02AFF00BF80BDEC
:1007600080B400AF3F4B4AF20152A3F8FC233D4B4B
:10077000B3F8F8339BB23B4A23F4E0439BB2A2F8B0
:10078000F833384BB3F8F8339BB2364A6FEA8343F9
:100790006FEA93439BB2A2F8F833324B0322A3F8DB
:1007A000F423304B0422A3F866242E4B5022A3F8E6
:1007B00064242C4B0422A3F862242A4B4022A3F881
:1007C0006024284B5222A3F80424264B5222A3F87B
:1007D0000824244B5222A3F80C24224B5222A3F8C3
:1007E0001024204B5222A3F858241E4B5222A3F867
:1007F00054241C4B5022A3F8B4241A4B0422A3F80F
:10080000B624184B5222A3F81824164B4022A3F802
:100810001424144B0022A3F81624124B4022A3F8F0
:100820004024104B0022A3F842240E4B4FF4AB722D
:10083000A3F820240B4B4FF4AB72A3F82424094BEC
:100840003022A3F82624074B3122A3F82224054B9B
:100850004FF42542A3F8FC2300BFBD465DF8047B9E
:10086000704700BF0038054080B483B000AF034636
:10087000FB80B7F90630002B0BDBFB8803F01F026F
:100880000749B7F906305B09012000FA02F241F886
:10089000232000BF0C37BD465DF8047B704700BFC6
:1008A00000E100E080B483B000AF03463960FB8014
:1008B000B7F90630002B0ADB3B68DAB20C49B7F90E
:1008C00006301201D2B20B4483F800230AE03B68E1
:1008D000DAB20849FB8803F00F03043B1201D2B2DD
:1008E0000B441A7600BF0C37BD465DF8047B704799
:1008F00000E100E000ED00E02DE9B04386B000AF7C
:10090000786000F07DFEC7E904017B6832330D4A50
:10091000A2FB03235B09FB6000F072FED7E904230E
:10092000841A61EB0305FB68002298469146444512
:1009300075EB090300D2EFE700BF00BF1837BD46D3
:10094000BDE8B0831F85EB5180B400AF134B9B68AB
:10095000124A23F020039360114B422283F8802037
:100960000F4B002283F881200D4B00221A800C4B84
:10097000A4229A800A4B0022A3F84C20084B41F293
:100980004332A3F84C21074B03F580531A46012349
:10099000136000BFBD465DF8047B704700800440D3
:1009A000005C014000802B4280B500AF2D4B9B685E
:1009B0002C4A23F0200393602B4B422283F88020A3
:1009C000294B002283F88120274B00221A80264BD6
:1009D0004FF6FF729A80244B44F23102A3F80821AB
:1009E000214B0022A3F848201F4BB3F890309BB254
:1009F0001D4A43F004039BB2A2F890301B4B40F217
:100A00000B12C3F8AC2101215420FFF74BFF5420F7
:100A1000FFF72AFF164B03F580531A460123136094
:100A2000144B00221A70144B00221A60134B002240
:100A30001A70134B00221A7012494FF000024FF047
:100A40000003C1E90023104B00221A700F4B002253
:100A50001A7000F0D5FD02460B460D49C1E900238E
:100A600000BF80BD00800440005C014000100540D4
:100A700000802B421080FF1F1480FF1F1880FF1F73
:100A80001980FF1F2080FF1F0080FF1F2880FF1F8D
:100A90000880FF1F80B584B000AF5E4BB3F89C3078
:100AA0009BB203F00403002B00F0B080594BB3F865
:100AB0009C309BB2574A23F004039BB2A2F89C30AF
:100AC00000F09EFDC7E90001534BD3E90023134317
:100AD00007D03968504BD3E900231346CB1AFB608B
:100AE00001E00023FB604C49D7E90023C1E9002362
:100AF000FB68C82B08D9494B00221A70484B0022CA
:100B00001A70484B00221A60474B1B78DBB2002B4F
:100B10000CBF01230023DBB21A46434B1A70424B31
:100B20001B78DBB2002B25D13C4B1B78DBB2002BB2
:100B300002D0022B10D069E0FB683B2B65D9FB6823
:100B4000782B62D8354B01221A70354B00221A706F
:100B5000344B00221A6058E0FB68022B06D9FB6870
:100B60000A2B03D82D4B03221A704FE02B4B002287
:100B70001A704BE0294B1B78DBB2012B02D0032B00
:100B80000ED043E0FB68182B06D9FB683C2B03D83A
:100B9000224B02221A7039E0204B00221A7035E0F5
:100BA000FB68022B08D9FB680A2B05D81D4B1B6874
:100BB0005B081C4A136011E0FB680B2B0AD9FB6829
:100BC000192B07D8174B1B685B0843F00043154AE5
:100BD000136003E0114B00221A7017E0104B1B78D2
:100BE000DBB20133DAB20E4B1A700D4B1B78DBB25D
:100BF0001F2B06D90D4B01221A70084B00221A70C8
:100C000004E0064B02221A7000E000BF00BF10375C
:100C1000BD4680BD005C01402080FF1F1080FF1F8B
:100C20001880FF1F1480FF1F0080FF1F1980FF1F07
:100C300080B400AF00BFBD465DF8047B7047000084
:100C400080B58AB000AF00F0E9F9FFF789FDFFF742
:100C50007BFEFFF7A9FEFFF7F9FBFFF7E1FBFFF7CC
:100C600025FC01233B800023BB706423BB61084B40
:100C70003B623B46184600F0F9F9032201210120AE
:100C800000F022FA00F070FAFFF758FD00BFF9E714
:100C9000310C000080B487B000AFF860B9607A60B2
:100CA000FB687B61BB683B6107E03A69531C3B61B1
:100CB0007B69591C796112781A707B685A1E7A60B8
:100CC000002BF2D100BF00BF1C37BD465DF8047B8E
:100CD000704780B483B000AF78607B68D3F8D030C1
:100CE000032B0CBF01230023DBB218460C37BD4693
:100CF0005DF8047B7047000080B582B000AF78607B
:100D000039607868FFF7E5FF0346002B01D0032325
:100D100026E07B68D3F8CC20796813465B01134446
:100D20005B00CA183B681046194642231A4600F079
:100D3000DFFC7B68D3F8CC30591C0B4BA3FB0123A1
:100D40005A0813465B001344CA1A7B68C3F8CC20C8
:100D50007B68D3F8D0305A1C7B68C3F8D0200023BE
:100D600018460837BD4680BDABAAAAAA80B400AF1A
:100D7000064B0122C3F86821044B0122C3F86C2101
:100D800000BFBD465DF8047B704700BF0000A7426E
:100D900080B483B000AF1C4BD3F89C31012B2CD115
:100DA0001A4B9B68D3F80021184B9B68D3F8043189
:100DB0009A4222D0154B9B68D3F800317B60134BCD
:100DC0009A687B6813441B785AB2114B92B29A808E
:100DD0007B685A1C0D4B9B68D2B2C3F800210B4BA9
:100DE0009B68D3F80021094B9B68D3F804319A42E1
:100DF00003D1054B0122C3F8982100BF0C37BD4633
:100E00005DF8047B704700BF00003A420081FF1F7D
:100E100000D0014080B500AF0A4B9B68D3F8002199
:100E2000084B9B68D3F804319A4209D1064B002243
:100E3000C3F89C21044B0022C3F89821FFF796FFCA
:100E400000BF80BD0081FF1F00003A4280B483B024
:100E500000AF1A4B5B68012B03D1184B0122C3F87A
:100E6000C421164B5B69012B22D1154BDB889BB249
:100E7000FB71144BDB68D3F804320133C3F308036E
:100E80003B60104BDB68D3F800323A689A420ED0D0
:100E90000C4BDA680B4BDB68D3F8043297F9071078
:100EA000D154084BDB683A68C3F8042200E000BF65
:100EB0000C37BD465DF8047B704700BF00003A4226
:100EC00000D001400081FF1F80B592B000AF294BD8
:100ED0001B6A012B49D10023A7F846301EE0264BA0
:100EE000DA68254BDB68D3F80032D35C5AB2B7F826
:100EF0004630D2B248333B4403F8442C1E4BDB68E7
:100F0000D3F800325A1C1C4BDB68C2F30802C3F84A
:100F10000022B7F846300133A7F84630164B9B6ADB
:100F200015489847034683F00103DBB2002BD6D166
:100F3000B7F84630A7F84430B7F84630002B04D055
:100F40003B1D19460D48FFF7D7FE0D4B0022C3F895
:100F500020220B4B0022C3F80022094B0122C3F8C8
:100F60002022044B0122C3F8D02100BF4837BD46E0
:100F700080BD00BF00003A420081FF1F2C80FF1F90
:100F80000080484280B485B000AF0346FB80002358
:100F9000FB8115E0FA890F4913469B001344DB00DF
:100FA0000B441B88FA889A4207D1FA8913469B00A2
:100FB0001344DB00074A134406E0FB890133FB813D
:100FC000FB891F2BE6D9002318461437BD465DF870
:100FD000047B70474081FF1F80B483B000AF78600E
:100FE0007B6800221A6279684FF000024FF000031C
:100FF000C1E9022379684FF000024FF00003C1E914
:1010000004237B6800229A617B6800229A7000BFEB
:101010000C37BD465DF8047B7047000080B582B098
:1010200000AF00237B6016E00F497A6813469B00EF
:101030001344DB000B444FF6FF721A807A681346A4
:101040009B001344DB00084A13441846FFF7C4FF13
:101050007B6801337B607B681F2BE5D900BF00BF35
:101060000837BD4680BD00BF4081FF1F80B584B0FA
:1010700000AF78600023FB601CE01249FA68134659
:101080009B001344DB000B441B884FF6FF72934216
:101090000DD1FA6813469B001344DB00094A134440
:1010A000282279681846FFF7F5FD012306E0FB6862
:1010B0000133FB60FB681F2BDFD900231846103774
:1010C000BD4680BD4081FF1F80B584B000AF0346A0
:1010D000FB800B467B7113463B71FB881846FFF77C
:1010E00051FFF86000F08CFA02460B46F968C1E93E
:1010F0000223FB68002B33D0FB689B785BB2002B8C
:1011000017DA7B79002B07D0FB68DA783B79134339
:10111000DAB2FB68DA7023E0FB68DB785AB297F941
:101120000430DB435BB213405BB2DAB2FB68DA70C7
:1011300016E07B79002B07D0FB689A783B79134344
:10114000DAB2FB689A700BE0FB689B785AB297F9A9
:101150000430DB435BB213405BB2DAB2FB689A70D7
:1011600000BF1037BD4680BD2DE9B04382B000AF4F
:1011700000237B6066E07A6813469B001344DB0023
:10118000354A13443B603B689B7803F00103002B16
:1011900055D03B689A783B68DA703B689B7863F07F
:1011A0007F03DAB23B689A7000F02AFA02460B46D7
:1011B0003968C1E904233B68D3E904013B68D3E9FA
:1011C0000223841A61EB03053B689B690022984661
:1011D0009146444575EB090315D33B681B6A984754
:1011E0003B68D3E904233968C1E902233B689B7853
:1011F00003F00203002B06D13B689B7823F0010328
:10120000DAB23B689A703B689B7803F07F03DAB2EE
:101210003B689A703B689B7803F04003002B0ED02C
:101220003B68DA783B689A703B68DA693B689A6198
:101230003B689B7823F04003DAB23B689A707B6886
:1012400001337B607B681F2B95D900BF00BF083737
:10125000BD46BDE8B08300BF4081FF1F80B485B0AC
:1012600000AF78607B6803F00703FB600C4BDB6822
:10127000BB60BA684FF6FF031340BB60FB681A02FD
:10128000BB68134343F0BF6343F40033BB60044ABD
:10129000BB68D36000BF1437BD465DF8047B704760
:1012A00000ED00E080B483B000AF0346FB80B7F9E7
:1012B0000630002B0BDBFB8803F01F020749B7F950
:1012C00006305B09012000FA02F241F8232000BF3A
:1012D0000C37BD465DF8047B704700BF00E100E0BD
:1012E00080B483B000AF03463960FB80B7F90630A5
:1012F000002B0ADB3B68DAB20C49B7F90630120161
:10130000D2B20B4483F800230AE03B68DAB2084902
:10131000FB8803F00F03043B1201D2B20B441A7690
:1013200000BF0C37BD465DF8047B704700E100E06C
:1013300000ED00E080B483B000AF78607B689B096B
:10134000054AA2FB0323DB0A044A136000BF0C37E3
:10135000BD465DF8047B70478DA93C024886FF1F9F
:1013600080B485B000AF7860094B1A687B6802FBD7
:1013700003F3FB6000BFFB685A1EFA60002BFAD132
:1013800000BF00BF1437BD465DF8047B704700BF47
:101390004886FF1F80B500AF3C4B03F540434AF23F
:1013A0000F52A3F8FE23394B394A1A61374B394A99
:1013B0001A60364B384A1A61384B394A1A62374B31
:1013C000012283F83220354BA02283F81024334BBE
:1013D000002283F83220334B77225A60314B4FF092
:1013E00011321A602F4B76225A602F4B40F2231293
:1013F0001A602D4B43F210221A602C4B0022C3F8C6
:101400002021294B9B68284A23F0F0039360264B48
:101410009B68254A43F050039360234B42F22222FB
:101420001A601A4B03F540430F2283F80224174B2E
:1014300003F54043102283F80F241D48FFF77AFF7D
:101440004FF47A70FFF78CFF144B012283F82A20A7
:10145000124B184AC3F80021104B002283F82A20AF
:1014600000BF0E4B93F83C30DBB203F02803002B97
:10147000F7D00A4B052283F82620044B03F540439E
:101480004FF42542A3F8FE2300BF80BD0080044036
:101490000100A5A5EEFAFDFE0000A5A5004005404F
:1014A0001122110000080540000401400080204284
:1014B00000127A000031101180B400AF0A49D1F84F
:1014C000801001290BD10949D1E900014B1C0246CA
:1014D0000649C1E90023044B0122C3F8802200BF62
:1014E000BD465DF8047B70470000A4424086FF1FA4
:1014F00080B500AF1A4B9B68194A23F00103936033
:10150000184B40221A64184B00221A60164B42F204
:1015100010729A60144B4FF480421A61134B3722B9
:10152000C3F8F42000212620FFF7DAFE2620FFF77B
:10153000B9FE0C4B40225A600D4B0E4A9A600C4B80
:101540000122DA600A4B0C4A1A60094B01229A61A7
:10155000054B1B69044A43F00103136100BF80BDC2
:101560000080044000080140004002400010054097
:10157000002005400000FFFF1300008080B500AF91
:101580000A4BD3F88830094A43F47003C2F8883014
:10159000FFF700FF054B00229A604FF44070FFF701
:1015A0005DFEFFF7A5FF00BF80BD00BF00ED00E0BE
:1015B0002DE9B04386B000AF786000F021F8C7E9AC
:1015C00004017A6813469B0013445B001A4600230B
:1015D00090469946C7E9028900F012F8D7E904233A
:1015E000841A61EB0305D7E90223944275EB0303E8
:1015F00000D2F1E700BF00BF1837BD46BDE8B08399
:10160000B0B400AF0949896800200A46034608497A
:10161000D1E9000142EA000443EA010522462B46D3
:1016200010461946BD46B0BC704700BF00200540BB
:101630004086FF1FDFF87CD01F49204A204B9A428A
:10164000BEBF51F8040B42F8040BF8E71D491E4ACF
:101650001E4B9A42BEBF51F8040B42F8040BF8E748
:101660001B491C4A00209142BCBF41F8040BFAE719
:1016700019491A4A00209142BCBF41F8040BFAE70D
:1016800017484FF07701016016484FF0770101606D
:1016900015484FF48851016011484FF07601016000
:1016A00010484FF076010160FFF768FFFFF7C8FAB6
:1016B000704700005096FF1F0C1700000080FF1FAE
:1016C0000480FF1F1017000000000F2000000F20F3
:1016D0000880FF1F4C86FF1F00000F2000000F2016
:1016E000040805400C08054000080540FEE700BF5F
:1016F0000A44914200F1FF3300D1704710B511F850
:0C170000014B03F8014F9142F9D110BDDC
:04170C0001000000D8
:0400000300001635AE
:00000001FF
