:100000005896FF1F5D2200001423000014230000F7
:10001000142300001423000014230000000000003B
:100020000000000000000000000000001423000099
:10003000142300000000000014230000142300001B
:1000400014230000142300001423000014230000D4
:1000500014230000142300001423000014230000C4
:1000600014230000142300001423000014230000B4
:1000700014230000142300001423000014230000A4
:100080001423000014230000142300001423000094
:100090001423000014230000142300001423000084
:1000A0001423000014230000142300001423000074
:1000B0001423000014230000142300001423000064
:1000C0001423000014230000142300001423000054
:1000D00014230000142300009520000014230000C6
:1000E0001423000014230000142300001423000034
:1000F0001423000014230000142300001423000024
:100100001423000014230000142300001423000013
:100110001423000014230000142300001423000003
:1001200014230000142300001423000014230000F3
:1001300014230000142300001423000014230000E3
:1001400014230000142300001423000014230000D3
:1001500014230000142300001423000014230000C3
:1001600014230000142300001423000014230000B3
:1001700014230000142300001423000014230000A3
:100180002D190000E9190000651A0000B1190000DE
:10019000E1130000142300001423000014230000C6
:1001A0001423000014230000142300001423000073
:1001B0001423000014230000142300001423000063
:1001C0001423000014230000142300001423000053
:1001D0001423000014230000142300001423000043
:10040000FFFFFFFFFFFEFFFFFFFFFFFFFFFFFFFFFD
:10041000FFFFFFFFFFFFFFFFFFFFFFFFFFFFFFFFEC
:1004200081F0004102E000BF83F0004330B54FEAA5
:1004300041044FEA430594EA050F08BF90EA020F12
:100440001FBF54EA000C55EA020C7FEA645C7FEAA5
:10045000655C00F0E2804FEA5454D4EB5555B8BFC8
:100460006D420CDD2C4480EA020281EA030382EA39
:10047000000083EA010180EA020281EA0303362DCB
:1004800088BF30BD11F0004F4FEA01314FF4801C9E
:100490004CEA113102D0404261EB410113F0004FB0
:1004A0004FEA03334CEA133302D0524263EB430367
:1004B00094EA050F00F0A780A4F10104D5F1200E05
:1004C0000DDB02FA0EFC22FA05F2801841F1000160
:1004D00003FA0EF2801843FA05F359410EE0A5F134
:1004E00020050EF1200E012A03FA0EFC28BF4CF065
:1004F000020C43FA05F3C01851EBE37101F000451B
:1005000007D54FF0000EDCF1000C7EEB00006EEB27
:100510000101B1F5801F1BD3B1F5001F0CD34908B1
:100520005FEA30004FEA3C0C04F101044FEA445208
:1005300012F5800F80F09A80BCF1004F08BF5FEA8F
:10054000500C50F1000041EB045141EA050130BD6F
:100550005FEA4C0C404141EB0101013C28BFB1F581
:10056000801FE9D291F0000F04BF01460020B1FACC
:1005700081F308BF2033A3F10B03B3F120020CDA9F
:100580000C3208DD02F1140CC2F10C0201FA0CF07D
:1005900021FA02F10CE002F11402D8BFC2F1200CE2
:1005A00001FA02F120FA0CFCDCBF41EA0C01904098
:1005B000E41AA2BF01EB0451294330BD6FEA0404E1
:1005C0001F3C1CDA0C340EDC04F11404C4F12002CC
:1005D00020FA04F001FA02F340EA030021FA04F3DE
:1005E00045EA030130BDC4F10C04C4F1200220FA35
:1005F00002F001FA04F340EA0300294630BD21FA73
:1006000004F0294630BD94F0000F83F4801306BF38
:1006100081F480110134013D4EE77FEA645C18BF2C
:100620007FEA655C29D094EA050F08BF90EA020FC3
:1006300005D054EA000C04BF1946104630BD91EABB
:10064000030F1EBF0021002030BD5FEA545C05D1BE
:100650004000494128BF41F0004130BD14F58004FD
:100660003CBF01F5801130BD01F0004545F0FE4171
:1006700041F470014FF0000030BD7FEA645C1ABFA6
:10068000194610467FEA655C1CBF0B46024650EADD
:10069000013406BF52EA033591EA030F41F4002109
:1006A00030BD00BF90F0000F04BF0021704730B58F
:1006B0004FF4806404F132044FF000054FF0000164
:1006C00050E700BF90F0000F04BF0021704730B525
:1006D0004FF4806404F1320410F0004548BF4042FA
:1006E0004FF000013EE700BF42004FEAE2014FEA4F
:1006F00031014FEA02701FBF12F07F4393F07F4F2A
:1007000081F06051704732F07F4208BF704793F02C
:100710007F4F04BF41F40021704730B54FF460743F
:1007200001F0004521F000411CE700BF50EA010242
:1007300008BF704730B54FF000050AE050EA0102EB
:1007400008BF704730B511F0004502D5404261EB5B
:1007500041014FF4806404F132045FEA915C3FF49C
:10076000D8AE4FF003025FEADC0C18BF03325FEA39
:10077000DC0C18BF033202EBDC02C2F1200300FAEA
:1007800003FC20FA02F001FA03FE40EA0E0021FA0F
:1007900002F11444BDE600BF70B54FF0FF0C4CF4FD
:1007A000E06C1CEA11541DBF1CEA135594EA0C0FAF
:1007B00095EA0C0F00F0DEF82C4481EA030621EAEA
:1007C0004C5123EA4C5350EA013518BF52EA033525
:1007D00041F4801143F4801338D0A0FB02CE4FF0D7
:1007E0000005E1FB02E506F00042E0FB03E54FF007
:1007F0000006E1FB03569CF0000F18BF4EF0010EFF
:10080000A4F1FF04B6F5007F64F5407404D25FEAFA
:100810004E0E6D4146EB060642EAC62141EA5551AD
:100820004FEAC52040EA5E504FEACE2EB4F1FD0CEF
:1008300088BFBCF5E06F1ED8BEF1004F08BF5FEA6D
:10084000500E50F1000041EB045170BD06F000461F
:1008500046EA010140EA020081EA0301B4EB5C04CC
:10086000C2BFD4EB0C0541EA045170BD41F48011C4
:100870004FF0000E013C00F3AB8014F1360FDEBFE9
:10088000002001F0004170BDC4F10004203C35DAC5
:100890000C341BDC04F11404C4F1200500FA05F348
:1008A00020FA04F001FA05F240EA020001F00042E9
:1008B00021F0004110EBD37021FA04F642EB06015F
:1008C0005EEA430E08BF20EAD37070BDC4F10C0489
:1008D000C4F1200500FA04F320FA05F001FA04F24D
:1008E00040EA020001F0004110EBD37041F1000139
:1008F0005EEA430E08BF20EAD37070BDC4F1200544
:1009000000FA05F24EEA020E20FA04F301FA05F2AB
:1009100043EA020321FA04F001F0004121FA04F253
:1009200020EA020000EBD3705EEA430E08BF20EA23
:10093000D37070BD94F0000F0FD101F0004640005D
:1009400041EB010111F4801F08BF013CF7D041EADF
:10095000060195F0000F18BF704703F000465200E3
:1009600043EB030313F4801F08BF013DF7D043EAB4
:100970000603704794EA0C0F0CEA135518BF95EA6A
:100980000C0F0CD050EA410618BF52EA4306D1D1F1
:1009900081EA030101F000414FF0000070BD50EA10
:1009A000410606BF1046194652EA430619D094EA9A
:1009B0000C0F02D150EA013613D195EA0C0F05D184
:1009C00052EA03361CBF104619460AD181EA0301D8
:1009D00001F0004141F0FE4141F470014FF0000090
:1009E00070BD41F0FE4141F4780170BD70B54FF02B
:1009F000FF0C4CF4E06C1CEA11541DBF1CEA1355AB
:100A000094EA0C0F95EA0C0F00F0A7F8A4EB05048C
:100A100081EA030E52EA03354FEA013100F0888083
:100A20004FEA03334FF0805545EA131343EA12634C
:100A30004FEA022245EA111545EA10654FEA002601
:100A40000EF000419D4208BF964244F1FD0404F5BA
:100A5000407402D25B084FEA3202B61A65EB030516
:100A60005B084FEA32024FF480104FF4002CB6EBD3
:100A7000020E75EB030E22BFB61A754640EA0C0053
:100A80005B084FEA3202B6EB020E75EB030E22BF93
:100A9000B61A754640EA5C005B084FEA3202B6EBD4
:100AA000020E75EB030E22BFB61A754640EA9C0093
:100AB0005B084FEA3202B6EB020E75EB030E22BF63
:100AC000B61A754640EADC0055EA060E18D04FEA21
:100AD000051545EA16754FEA06164FEAC30343EAC1
:100AE00052734FEAC2025FEA1C1CC0D111F4801F8E
:100AF0000BD141EA00014FF000004FF0004CB6E787
:100B000011F4801F04BF01430020B4F1FD0C88BF25
:100B1000BCF5E06F3FF6AFAEB5EB030C04BFB6EB30
:100B2000020C5FEA500C50F1000041EB045170BD23
:100B30000EF0004E4EEA113114EB5C04C2BFD4EB50
:100B40000C0541EA045170BD41F480114FF0000ED4
:100B5000013C90E645EA060E8DE60CEA135594EA50
:100B60000C0F08BF95EA0C0F3FF43BAF94EA0C0F53
:100B70000AD150EA01347FF434AF95EA0C0F7FF4C8
:100B800025AF104619462CE795EA0C0F06D152EA1C
:100B900003353FF4FDAE1046194622E750EA410600
:100BA00018BF52EA43067FF4C5AE50EA41047FF411
:100BB0000DAF52EA43057FF4EBAE12E74FEA410274
:100BC000B2F1E04324BFB3F5001CDCF1FE5C0DD9AB
:100BD00001F0004C4FEAC0024CEA5070B2F1004FF5
:100BE00040EB830008BF20F00100704711F0804FF8
:100BF00021D113F13872BCBF01F00040704741F4BD
:100C000080114FEA5252C2F11802C2F1200C10FAC0
:100C10000CF320FA02F018BF40F001004FEAC123A4
:100C20004FEAD32303FA0CFC40EA0C0023FA02F348
:100C30004FEA4303CCE77FEA625307D150EA01331E
:100C40001EBF4FF0FE4040F44000704701F00040EE
:100C500040F0FE4040F40000704700BF80B400AF99
:100C6000034B5E225A8100BFBD465DF8047B70478E
:100C70000038054080B500AF124BDB68114A23F005
:100C80000103D360104B00221A700A2001F07EFA93
:100C90000D4B4FF498625A800B4B00229A800A4BFE
:100CA00000225A81084B0122DA60074B01225A6167
:100CB000054BFF2283F82020034B0022A3F8C0201D
:100CC00000BF80BD008004400000044080B483B0B9
:100CD00000AF0D4B01221A7000BF0B4B93F846304A
:100CE000DBB203F00103002BF7D0074BB3F8503011
:100CF000FB80054B012283F84620FB8818460C3701
:100D0000BD465DF8047B7047000004400000000011
:100D100080B582B000AFFFF7D9FF0346FB80FB88A8
:100D200007EE903AF8EEE77A9FED117A67EE877A50
:100D30009FED107AC7EE876A16EE900AFFF7D4FC93
:100D400009A3D3E90023FFF751FE02460B461046E4
:100D50001946FFF733FF034607EE903AB0EE670AF5
:100D60000837BD4680BD00BF0D71AC8BDB68C03F4E
:100D70003333534000F07F4580B582B000AFFFF7BA
:100D8000C7FF87ED010AD7ED017A9FED1C7AF4EEDB
:100D9000C77AF1EE10FA06DD194B1E225A81184B64
:100DA00040221A8126E0D7ED017A9FED167AF4EE03
:100DB000C77AF1EE10FA06D5114B1E225A81104B5C
:100DC00040221A8116E0D7ED017A9FED0E7AF4EEFB
:100DD000C77AF1EE10FA00DA0CE0D7ED017A9FED58
:100DE000077AF4EEC77AF1EE10FA00D902E0044B6C
:100DF00040225A8100BF0837BD4680BD0000D24363
:100E0000003805400080BC4380B500AF124BDB6862
:100E1000114A23F00103D360104B00221A700A20FC
:100E200001F0B4F90D4B4FF498625A800B4B00223D
:100E30009A800A4B00225A81084B0622DA60074B3F
:100E400006225A61054BFF2283F82020034B002223
:100E5000A3F8C02000BF80BD008004400000044013
:100E600080B400AF134B9B68124A23F020039360B9
:100E7000114B522283F880200F4B002283F88120EF
:100E80000D4B00221A800C4B7D229A800A4B0022C7
:100E9000A3F84C20084B41F24302A3F84C21074B26
:100EA00003F580531A460123136000BFBD465DF869
:100EB000047B704700800440005C014000802B42AE
:100EC00080B483B000AF0346FB80FB88002B05D1C4
:100ED0000E4B41F24322A3F84C2111E0FB887C2BFE
:100EE00005D90A4B41F24332A3F84C2108E0074AE6
:100EF000FB88A2F84C30054B41F24302A3F84C2189
:100F000000BF0C37BD465DF8047B7047005C0140B4
:100F100080B483B000AF0D4B01221A7000BF0B4BA1
:100F200093F84630DBB203F00103002BF7D0074BF8
:100F3000B3F85030FB80054B012283F84620FB8834
:100F400018460C37BD465DF8047B7047000004402E
:100F500080B582B000AFFFF7DBFF034607EE903AA3
:100F6000F8EE677AC7ED017AD7ED017A9FED137A33
:100F7000F4EEC77AF1EE10FA03DD7D20FFF7A0FF53
:100F800018E0D7ED017A9FED0E7AF4EEC77AF1EE14
:100F900010FA0CDDD7ED017A9FED087AF4EEC77AEE
:100FA000F1EE10FA03D86420FFF78AFF02E03C203C
:100FB000FFF786FF00BF0837BD4680BD0000A04296
:100FC0000000704280B400AF364B4AF20152A3F8E1
:100FD000FC23344BB3F8F8339BB2324A23F4E0439A
:100FE0009BB2A2F8F8332F4BB3F8F8339BB22D4ADB
:100FF0006FEA83436FEA93439BB2A2F8F833294B1D
:101000000322A3F8F423274B0422A3F86624254BDC
:101010005022A3F86424234B0422A3F86224214B1A
:101020004022A3F860241F4B5222A3F804241D4B36
:101030005222A3F808241B4B5222A3F80C24194B6C
:101040005222A3F81024174B5322A3F8B424154BB3
:101050000422A3F8B624134B5222A3F81824114BF0
:101060004022A3F814240F4B0022A3F816240D4BA2
:101070004022A3F800240B4B0022A3F80224094BC2
:101080003022A3F82624074B3122A3F82224054B53
:101090004FF42542A3F8FC2300BFBD465DF8047B56
:1010A000704700BF0038054080B483B000AF0346EE
:1010B000FB80B7F90630002B0BDBFB8803F01F0227
:1010C0000749B7F906305B09012000FA02F241F83E
:1010D000232000BF0C37BD465DF8047B704700BF7E
:1010E00000E100E080B483B000AF03463960FB80CC
:1010F000B7F90630002B0ADB3B68DAB20C49B7F9C6
:1011000006301201D2B20B4483F800230AE03B6898
:10111000DAB20849FB8803F00F03043B1201D2B294
:101120000B441A7600BF0C37BD465DF8047B704750
:1011300000E100E000ED00E080B400AFBFF34F8FAE
:1011400000BF064BDB6803F4E0620449044B134321
:10115000CB60BFF34F8F00BF00BFFDE700ED00E0A5
:101160000400FA052DE9B04386B000AF786001F0C5
:1011700035F8C7E904017B6832330D4AA2FB03232B
:101180005B09FB6001F02AF8D7E90423841A61EBBC
:101190000305FB68002298469146444575EB090318
:1011A00000D2EFE700BF00BF1837BD46BDE8B083EF
:1011B0001F85EB5180B400AF134B9B68124A23F09C
:1011C00020039360114B422283F880200F4B0022B2
:1011D00083F881200D4B00221A800C4BA4229A80A8
:1011E0000A4B0022A3F84C20084B41F24332A3F8EB
:1011F0004C21074B03F580531A460123136000BFAF
:10120000BD465DF8047B704700800440005C0140EF
:1012100000802B4280B500AF2D4B9B682C4A23F0F9
:10122000200393602B4B422283F88020294B00221D
:1012300083F88120274B00221A80264B4FF6FF723D
:101240009A80244B44F23102A3F80821214B00225A
:10125000A3F848201F4BB3F890309BB21D4A43F0CF
:1012600004039BB2A2F890301B4B40F20B12C3F860
:10127000AC2101215420FFF735FF5420FFF714FF64
:10128000164B03F580531A4601231360144B0022BA
:101290001A70144B00221A60134B00221A70134B61
:1012A00000221A7012494FF000024FF00003C1E90A
:1012B0000023104B00221A700F4B00221A7000F00E
:1012C0008DFF02460B460D49C1E9002300BF80BDDA
:1012D00000800440005C01400010054000802B426B
:1012E0001080FF1F1480FF1F1880FF1F1980FF1F31
:1012F0002080FF1F0080FF1F2880FF1F0880FF1F26
:1013000080B584B000AF03460A46FB711346BB713B
:10131000FA79FB79DB43DBB21B021A43BB791B046E
:101320001A43BB79DB43DBB21B061343BB602B4B79
:101330005222A3F84C20294B41F24302A3F84C213E
:1013400042F22830FFF70EFF244B41F24322A3F86C
:101350004C214FF47A60FFF705FF0023FB7324E074
:101360001E4B5222A3F84C201C4B41F24302A3F81F
:101370004C214FF40C70FFF7F5FE184B41F243225D
:10138000A3F84C21FB7B01229A40BB681340002B41
:1013900004D040F29A60FFF7E5FE03E04FF40C70D2
:1013A000FFF7E0FEFB7B0133FB73FB7B1F2BD7D9E1
:1013B0000A4B5222A3F84C20084B41F24302A3F8F7
:1013C0004C214FF40C70FFF7CDFE044B41F2432249
:1013D000A3F84C2100BF1037BD4680BD005C014022
:1013E00080B584B000AF5E4BB3F89C309BB203F085
:1013F0000403002B00F0B080594BB3F89C309BB233
:10140000574A23F004039BB2A2F89C3000F0E6FE9A
:10141000C7E90001534BD3E90023134307D03968D0
:10142000504BD3E900231346CB1AFB6001E00023A5
:10143000FB604C49D7E90023C1E90023FB68C82BB6
:1014400008D9494B00221A70484B00221A70484BA9
:1014500000221A60474B1B78DBB2002B0CBF012324
:101460000023DBB21A46434B1A70424B1B78DBB2A7
:10147000002B25D13C4B1B78DBB2002B02D0022B7A
:1014800010D069E0FB683B2B65D9FB68782B62D8EC
:10149000354B01221A70354B00221A70344B002252
:1014A0001A6058E0FB68022B06D9FB680A2B03D8A8
:1014B0002D4B03221A704FE02B4B00221A704BE089
:1014C000294B1B78DBB2012B02D0032B0ED043E05B
:1014D000FB68182B06D9FB683C2B03D8224B022251
:1014E0001A7039E0204B00221A7035E0FB68022B9D
:1014F00008D9FB680A2B05D81D4B1B685B081C4AE2
:10150000136011E0FB680B2B0AD9FB68192B07D875
:10151000174B1B685B0843F00043154A136003E058
:10152000114B00221A7017E0104B1B78DBB201330D
:10153000DAB20E4B1A700D4B1B78DBB21F2B06D99B
:101540000D4B01221A70084B00221A7004E0064B62
:1015500002221A7000E000BF00BF1037BD4680BDF8
:10156000005C01402080FF1F1080FF1F1880FF1FBC
:101570001480FF1F0080FF1F1980FF1F80B485B0FB
:1015800000AF78601B4B1B78DBB2002B01D100232E
:101590002AE0194B1B68FB73174B1B681B0ABB73B4
:1015A000154B1B681B0C7B73134B1B681B0E3B738B
:1015B000FA7BBB7B1344FF2B12D17A7B3B7B13441A
:1015C000FF2B0DD17B68FA7B1A707B687A7B5A708F
:1015D0007B6801229A70074B00221A70012303E0F6
:1015E000044B00221A70002318461437BD465DF8DC
:1015F000047B70471980FF1F1480FF1F80B500AF68
:101600003048FFF7BBFF0346002B59D02D4B1B780A
:10161000AA2B55D12B4B5B78AA2B2DD0AA2B4FDCB4
:10162000562B40D0562B4BDC112B02D0132B05D060
:1016300046E01221AA20FFF763FE41E0224B14226C
:101640005A810A2000F0A2FD1F4B0A221A810A20AB
:1016500000F09CFD1C4B08225A811B4B4FF400529A
:101660005A8500F0BBFD02460B461849C1E900232C
:10167000174B01221A7023E0134B40221A81124BA0
:101680000A225A81104B14221A81642000F07EFD38
:101690000D4B54225A814FF4FA7000F077FD0C4B39
:1016A00002221A700CE00A4B1B78DBB2012B06D128
:1016B00000F094FD02460B460449C1E9002300BF37
:1016C00000BF80BD2C80FF1F003805400880FF1F31
:1016D0002880FF1F2DE9B04382B000AF00F07EFDEF
:1016E000C7E90001304B1B78DBB2002B03D1FFF7B9
:1016F00061FDFFF78FFD2C4B1B78DBB2012B29D14D
:101700002A4BD3E90023D7E90001B0EB020861EBD3
:10171000030942F21073984579F1000308D355216B
:10172000AA20FFF7EDFD2149D7E90023C1E90023F5
:101730001F4BD3E90023D7E90001841A61EB0305AD
:1017400043F698239C4275F1000328D3164B0322DD
:101750001A7024E0144B1B78DBB2022B01D1FFF787
:10176000EBFC114B1B78DBB2032B18D1FF21AA2015
:10177000FFF7C6FD0F4B14221A810A2000F006FD68
:101780000C4B1E225A810B4B40221A81642000F020
:10179000FDFC084B40225A81034B00221A7000BF07
:1017A0000837BD46BDE8B0832880FF1F3080FF1F8B
:1017B0000880FF1F0038054080B500AFFFF7DCFA56
:1017C00000BF80BD80B58AB000AF00F0F5F9FFF72B
:1017D000F9FB00F01DFDFFF741FAFFF74BFA00F0AF
:1017E000A7FBFFF711FBFFF7E5FCFFF713FDFFF782
:1017F00037FB01233B800023BB706423BB610B4B91
:101800003B623B46184600F0FFF90322012101200C
:1018100000F028FA00F09AFB00F074FAFFF798FB4A
:10182000FFF7ECFEFFF756FF00BFF3E7B917000024
:1018300080B487B000AFF860B9607A60FB687B6104
:10184000BB683B6107E03A69531C3B617B69591CEB
:10185000796112781A707B685A1E7A60002BF2D177
:1018600000BF00BF1C37BD465DF8047B704780B4E5
:1018700083B000AF78607B68D3F8D030032B0CBF07
:1018800001230023DBB218460C37BD465DF8047B0C
:101890007047000080B582B000AF7860396078682A
:1018A000FFF7E5FF0346002B01D0032326E07B680A
:1018B000D3F8CC20796813465B0113445B00CA1847
:1018C0003B681046194642231A4600F025FD7B6806
:1018D000D3F8CC30591C0B4BA3FB01235A081346F9
:1018E0005B001344CA1A7B68C3F8CC207B68D3F82A
:1018F000D0305A1C7B68C3F8D02000231846083724
:10190000BD4680BDABAAAAAA80B400AF064B012297
:10191000C3F86821044B0122C3F86C2100BFBD4607
:101920005DF8047B704700BF0000A74280B483B01D
:1019300000AF1C4BD3F89C31012B2CD11A4B9B6868
:10194000D3F80021184B9B68D3F804319A4222D077
:10195000154B9B68D3F800317B60134B9A687B680A
:1019600013441B785AB2114B92B29A807B685A1C6E
:101970000D4B9B68D2B2C3F800210B4B9B68D3F888
:101980000021094B9B68D3F804319A4203D1054BDF
:101990000122C3F8982100BF0C37BD465DF8047BD7
:1019A000704700BF00003A420C81FF1F00D0014089
:1019B00080B500AF0A4B9B68D3F80021084B9B68A9
:1019C000D3F804319A4209D1064B0022C3F89C2176
:1019D000044B0022C3F89821FFF796FF00BF80BD9B
:1019E0000C81FF1F00003A4280B483B000AF1A4B55
:1019F0005B68012B03D1184B0122C3F8C421164B9D
:101A00005B69012B22D1154BDB889BB2FB71144B18
:101A1000DB68D3F804320133C3F308033B60104B97
:101A2000DB68D3F800323A689A420ED00C4BDA6881
:101A30000B4BDB68D3F8043297F90710D154084BED
:101A4000DB683A68C3F8042200E000BF0C37BD46EB
:101A50005DF8047B704700BF00003A4200D00140AF
:101A60000C81FF1F80B592B000AF294B1B6A012B80
:101A700049D10023A7F846301EE0264BDA68254BF3
:101A8000DB68D3F80032D35C5AB2B7F84630D2B232
:101A900048333B4403F8442C1E4BDB68D3F8003238
:101AA0005A1C1C4BDB68C2F30802C3F80022B7F8CB
:101AB00046300133A7F84630164B9B6A15489847C5
:101AC000034683F00103DBB2002BD6D1B7F84630D2
:101AD000A7F84430B7F84630002B04D03B1D194618
:101AE0000D48FFF7D7FE0D4B0022C3F820220B4B09
:101AF0000022C3F80022094B0122C3F82022044B24
:101B00000122C3F8D02100BF4837BD4680BD00BFC9
:101B100000003A420C81FF1F3880FF1F00804842BE
:101B200080B485B000AF0346FB800023FB8115E045
:101B3000FA890F4913469B001344DB000B441B88B2
:101B4000FA889A4207D1FA8913469B001344DB00B6
:101B5000074A134406E0FB890133FB81FB891F2BF5
:101B6000E6D9002318461437BD465DF8047B70475C
:101B70004881FF1F80B483B000AF78607B6800228B
:101B80001A6279684FF000024FF00003C1E90223A6
:101B900079684FF000024FF00003C1E904237B682D
:101BA00000229A617B6800229A7000BF0C37BD4604
:101BB0005DF8047B7047000080B582B000AF002361
:101BC0007B6016E00F497A6813469B001344DB00E4
:101BD0000B444FF6FF721A807A6813469B00134439
:101BE000DB00084A13441846FFF7C4FF7B68013343
:101BF0007B607B681F2BE5D900BF00BF0837BD465F
:101C000080BD00BF4881FF1F80B584B000AF786001
:101C10000023FB601CE01249FA6813469B00134442
:101C2000DB000B441B884FF6FF7293420DD1FA681C
:101C300013469B001344DB00094A134428227968A9
:101C40001846FFF7F5FD012306E0FB680133FB6052
:101C5000FB681F2BDFD9002318461037BD4680BD17
:101C60004881FF1F80B584B000AF0346FB800B4660
:101C70007B7113463B71FB881846FFF751FFF860F4
:101C800000F0ACFA02460B46F968C1E90223FB6892
:101C9000002B33D0FB689B785BB2002B17DA7B7983
:101CA000002B07D0FB68DA783B791343DAB2FB6884
:101CB000DA7023E0FB68DB785AB297F90430DB4333
:101CC0005BB213405BB2DAB2FB68DA7016E07B7984
:101CD000002B07D0FB689A783B791343DAB2FB6894
:101CE0009A700BE0FB689B785AB297F90430DB439B
:101CF0005BB213405BB2DAB2FB689A7000BF103778
:101D0000BD4680BD2DE9B04382B000AF00237B60AB
:101D100066E07A6813469B001344DB00354A13449F
:101D20003B603B689B7803F00103002B55D03B6878
:101D30009A783B68DA703B689B7863F07F03DAB28D
:101D40003B689A7000F04AFA02460B463968C1E9CE
:101D500004233B68D3E904013B68D3E90223841AD6
:101D600061EB03053B689B69002298469146444518
:101D700075EB090315D33B681B6A98473B68D3E9A9
:101D800004233968C1E902233B689B7803F002030E
:101D9000002B06D13B689B7823F00103DAB23B6845
:101DA0009A703B689B7803F07F03DAB23B689A70C5
:101DB0003B689B7803F04003002B0ED03B68DA7839
:101DC0003B689A703B68DA693B689A613B689B782C
:101DD00023F04003DAB23B689A707B6801337B6082
:101DE0007B681F2B95D900BF00BF0837BD46BDE8F3
:101DF000B08300BF4881FF1F80B485B000AF78601A
:101E00007B6803F00703FB600C4BDB68BB60BA68C0
:101E10004FF6FF031340BB60FB681A02BB68134315
:101E200043F0BF6343F40033BB60044ABB68D36034
:101E300000BF1437BD465DF8047B704700ED00E03D
:101E400080B483B000AF0346FB80B7F90630002BA7
:101E50000BDBFB8803F01F020749B7F906305B096B
:101E6000012000FA02F241F8232000BF0C37BD46E2
:101E70005DF8047B704700BF00E100E080B483B0F0
:101E800000AF03463960FB80B7F90630002B0ADB50
:101E90003B68DAB20C49B7F906301201D2B20B44F2
:101EA00083F800230AE03B68DAB20849FB8803F0B4
:101EB0000F03043B1201D2B20B441A7600BF0C3759
:101EC000BD465DF8047B704700E100E000ED00E0F6
:101ED00080B483B000AF78607B689B09054AA2FBA1
:101EE0000323DB0A044A136000BF0C37BD465DF8CC
:101EF000047B70478DA93C025086FF1F80B485B0DB
:101F000000AF7860094B1A687B6802FB03F3FB6043
:101F100000BFFB685A1EFA60002BFAD100BF00BF59
:101F20001437BD465DF8047B704700BF5086FF1F25
:101F300080B400AF034B044A1A6000BFBD465DF891
:101F4000047B7047009004408300018080B400AFA0
:101F5000064B40F223129A60044B43F210229A601F
:101F600000BFBD465DF8047B704700BF0090044091
:101F700080B500AF3C4B03F540434AF20F52A3F843
:101F8000FE23394B394A1A61374B394A1A60364BAE
:101F9000384A1A61384B394A1A62374B012283F8A2
:101FA0003220354BA02283F81024334B002283F8D3
:101FB0003220334B77225A60314B4FF011321A6086
:101FC0002F4B76225A602F4B40F223121A602D4B72
:101FD00043F210221A602C4B0022C3F82021294B17
:101FE0009B68284A23F0F0039360264B9B68254AA0
:101FF00043F050039360234B42F222221A601A4BA3
:1020000003F540430F2283F80224174B03F54043A6
:10201000102283F80F241D48FFF75AFF4FF47A70FF
:10202000FFF76CFF144B012283F82A20124B184A49
:10203000C3F80021104B002283F82A2000BF0E4B6A
:1020400093F83C30DBB203F02803002BF7D00A4BA7
:10205000052283F82620044B03F540434FF4254224
:10206000A3F8FE2300BF80BD008004400100A5A5A9
:10207000EEFAFDFE0000A5A500400540112211006A
:1020800000080540000401400080204200127A0050
:102090000031101180B400AF0A49D1F88010012935
:1020A0000BD10949D1E900014B1C02460649C1E99F
:1020B0000023044B0122C3F8802200BFBD465DF817
:1020C000047B70470000A4424886FF1F80B500AF24
:1020D0001A4B9B68194A23F001039360184B402266
:1020E0001A64184B00221A60164B42F210729A6062
:1020F000144B4FF480421A61134B3722C3F8F4207B
:1021000000212620FFF7BAFE2620FFF799FE0C4B90
:1021100040225A600D4B0E4A9A600C4B0122DA6045
:102120000A4B0C4A1A60094B01229A61054B1B6944
:10213000044A43F00103136100BF80BD00800440E6
:10214000000801400040024000100540002005400A
:102150000000FFFF1300008080B500AF0A4BD3F8EA
:102160008830094A43F47003C2F88830FFF700FF53
:10217000054B00229A604FF44070FFF73DFEFFF7D9
:10218000A5FF00BF80BD00BF00ED00E02DE9B0431A
:1021900086B000AF786000F021F8C7E904017A68E2
:1021A00013469B0013445B001A4600239046994651
:1021B000C7E9028900F012F8D7E90423841A61EB19
:1021C0000305D7E90223944275EB030300D2F1E73C
:1021D00000BF00BF1837BD46BDE8B083B0B400AF44
:1021E0000949896800200A4603460849D1E90001E7
:1021F00042EA000443EA010522462B4610461946EE
:10220000BD46B0BC704700BF002005404886FF1F98
:1022100080B400AF0E4B5B680D4A23F480335360EB
:102220000C4B1022DA600B4B40F613729A610A4B8A
:102230000122C3F88C20084B0122C3F88420064BEE
:102240000122C3F8982000BFBD465DF8047B7047AB
:102250000080044000C0014000003842DFF87CD01C
:102260001F49204A204B9A42BEBF51F8040B42F846
:10227000040BF8E71D491E4A1E4B9A42BEBF51F897
:10228000040B42F8040BF8E71B491C4A002091425A
:10229000BCBF41F8040BFAE719491A4A00209142E1
:1022A000BCBF41F8040BFAE717484FF07701016013
:1022B00016484FF07701016015484FF488510160CE
:1022C00011484FF07601016010484FF0760101602F
:1022D000FFF742FFFFF776FA704700005896FF1F9E
:1022E000342300000080FF1F0480FF1F38230000FC
:1022F00000000F2000000F200880FF1F5486FF1FE2
:1023000000000F2000000F20040805400C080540C5
:1023100000080540FEE700BF0A44914200F1FF3388
:1023200000D1704710B511F8014B03F8014F9142ED
:04233000F9D110BD12
:0423340001000000A4
:040000030000225D7A
:00000001FF
